{
  "contractName": "mycontract",
  "abi": [
    {
      "inputs": [],
      "stateMutability": "payable",
      "type": "constructor"
    },
    {
      "inputs": [],
      "name": "Owner",
      "outputs": [
        {
          "internalType": "address payable",
          "name": "",
          "type": "address"
        }
      ],
      "stateMutability": "view",
      "type": "function"
    },
    {
      "inputs": [],
      "name": "x",
      "outputs": [
        {
          "internalType": "uint256",
          "name": "",
          "type": "uint256"
        }
      ],
      "stateMutability": "view",
      "type": "function"
    },
    {
      "inputs": [
        {
          "internalType": "uint256",
          "name": "_x",
          "type": "uint256"
        }
      ],
      "name": "set",
      "outputs": [],
      "stateMutability": "nonpayable",
      "type": "function"
    },
    {
      "inputs": [
        {
          "internalType": "address payable",
          "name": "receiver",
          "type": "address"
        },
        {
          "internalType": "uint256",
          "name": "amount",
          "type": "uint256"
        }
      ],
      "name": "sendMoney",
      "outputs": [],
      "stateMutability": "payable",
      "type": "function"
    },
    {
      "inputs": [],
      "name": "ReceiveMoney",
      "outputs": [],
      "stateMutability": "payable",
      "type": "function"
    },
    {
      "inputs": [],
      "name": "CheckBalance_contractAccount",
      "outputs": [
        {
          "internalType": "uint256",
          "name": "",
          "type": "uint256"
        }
      ],
      "stateMutability": "view",
      "type": "function"
    },
    {
      "inputs": [],
      "name": "CheckBalance",
      "outputs": [
        {
          "internalType": "uint256",
          "name": "",
          "type": "uint256"
        }
      ],
      "stateMutability": "view",
      "type": "function"
    }
  ],
  "bytecode": "0x6080604052600a60005533600160006101000a81548173ffffffffffffffffffffffffffffffffffffffff021916908373ffffffffffffffffffffffffffffffffffffffff1602179055503460026000600160009054906101000a900473ffffffffffffffffffffffffffffffffffffffff1673ffffffffffffffffffffffffffffffffffffffff1673ffffffffffffffffffffffffffffffffffffffff16815260200190815260200160002081905550610673806100bf6000396000f3fe6080604052600436106100705760003560e01c806383cca1521161004e57806383cca152146100f4578063a29e0a941461011f578063b4a99a4e14610129578063ee4ae2c91461015457610070565b80630c55699c1461007557806344e73b78146100a057806360fe47b1146100cb575b600080fd5b34801561008157600080fd5b5061008a610170565b6040516100979190610443565b60405180910390f35b3480156100ac57600080fd5b506100b5610176565b6040516100c29190610443565b60405180910390f35b3480156100d757600080fd5b506100f260048036038101906100ed919061048f565b610239565b005b34801561010057600080fd5b50610109610243565b6040516101169190610443565b60405180910390f35b6101276102a5565b005b34801561013557600080fd5b5061013e6102a7565b60405161014b91906104fd565b60405180910390f35b61016e60048036038101906101699190610544565b6102cd565b005b60005481565b60003373ffffffffffffffffffffffffffffffffffffffff16600160009054906101000a900473ffffffffffffffffffffffffffffffffffffffff1673ffffffffffffffffffffffffffffffffffffffff16146101d257600080fd5b60026000600160009054906101000a900473ffffffffffffffffffffffffffffffffffffffff1673ffffffffffffffffffffffffffffffffffffffff1673ffffffffffffffffffffffffffffffffffffffff16815260200190815260200160002054905090565b8060008190555050565b60003373ffffffffffffffffffffffffffffffffffffffff16600160009054906101000a900473ffffffffffffffffffffffffffffffffffffffff1673ffffffffffffffffffffffffffffffffffffffff161461029f57600080fd5b47905090565b565b600160009054906101000a900473ffffffffffffffffffffffffffffffffffffffff1681565b3373ffffffffffffffffffffffffffffffffffffffff16600160009054906101000a900473ffffffffffffffffffffffffffffffffffffffff1673ffffffffffffffffffffffffffffffffffffffff161461032757600080fd5b60008273ffffffffffffffffffffffffffffffffffffffff16311161034b57600080fd5b6000811161035857600080fd5b8060026000600160009054906101000a900473ffffffffffffffffffffffffffffffffffffffff1673ffffffffffffffffffffffffffffffffffffffff1673ffffffffffffffffffffffffffffffffffffffff16815260200190815260200160002060008282546103c991906105b3565b9250508190555080600260008473ffffffffffffffffffffffffffffffffffffffff1673ffffffffffffffffffffffffffffffffffffffff168152602001908152602001600020600082825461041f91906105e7565b925050819055505050565b6000819050919050565b61043d8161042a565b82525050565b60006020820190506104586000830184610434565b92915050565b600080fd5b61046c8161042a565b811461047757600080fd5b50565b60008135905061048981610463565b92915050565b6000602082840312156104a5576104a461045e565b5b60006104b38482850161047a565b91505092915050565b600073ffffffffffffffffffffffffffffffffffffffff82169050919050565b60006104e7826104bc565b9050919050565b6104f7816104dc565b82525050565b600060208201905061051260008301846104ee565b92915050565b610521816104dc565b811461052c57600080fd5b50565b60008135905061053e81610518565b92915050565b6000806040838503121561055b5761055a61045e565b5b60006105698582860161052f565b925050602061057a8582860161047a565b9150509250929050565b7f4e487b7100000000000000000000000000000000000000000000000000000000600052601160045260246000fd5b60006105be8261042a565b91506105c98361042a565b9250828210156105dc576105db610584565b5b828203905092915050565b60006105f28261042a565b91506105fd8361042a565b9250827fffffffffffffffffffffffffffffffffffffffffffffffffffffffffffffffff0382111561063257610631610584565b5b82820190509291505056fea26469706673582212202ae23314cdaf31fdec42524d8ca93fe83b27b9168ad14f1867506196bbb3000764736f6c634300080d0033",
  "immutableReferences": {},
  "source": "// pragma is the directive through\r\n// which we write the smart contract\r\npragma solidity 0.8.13;\r\n\t\t\t\t\t\t\t\r\n// Creating a contract\r\ncontract mycontract{\r\n\tuint public x = 10;\r\n\tfunction set(uint _x) public {\r\n\t\tx = _x;\r\n\t}\r\n\r\n\t// Specify the owner's address\r\n\t// which is publicly visible\r\n\taddress payable public Owner;\r\n\r\n\t// mapping is created for mapping\r\n\t// address=>uint for transaction\r\n\tmapping(address=>uint) Amount;\r\n\t\r\n\t// Defining a constructor\r\n\t// constructor is payable, which means\r\n\t// it cost ether during the deployment\r\n\tconstructor() public payable{\r\n\t\t\t\t\t\r\n\t// msg.sender is the address of the\r\n\t// person who has currently deployed contract\r\n\t\tOwner = payable(msg.sender);\r\n\t\t\t\t\t\r\n\t\t// msg.value is the value of the ether we are\r\n\t\t// giving during the deploying of contract\r\n\t\tAmount[Owner] = msg.value;\r\n\t\r\n\t}\r\n\r\n\t// modifier(onlyOwner) it will check\r\n\t// the required condition, here condition\r\n\t// is the only owner can call this function\r\n\tmodifier onlyOwner(){\r\n\r\n\t\t// require is used whether the\r\n\t\t// owner is the person who has\r\n\t\t// deployed the contract or not\r\n\t\trequire(Owner == msg.sender);\r\n\t\t_;\r\n\t}\r\n\r\n// Defining a function which is\r\n// used to send money\r\nfunction sendMoney(\r\n\taddress payable receiver, uint amount)\r\n\t\t\t\t\tpublic payable onlyOwner {\r\n\r\n\t\t// receiver account balance should be>0\r\n\t\trequire( receiver.balance>0);\r\n\t\t\r\n\t\t// amount should not be negative,\r\n\t\t// otherwise it will throw error\r\n\t\trequire(amount>0);\r\n\t\t\t\t\t\t\r\n\t\tAmount[Owner] -= amount;\r\n\t\tAmount[receiver] += amount;\r\n\t}\r\n\r\n\t// Defining function for Receiving money\r\n\t// to our smart contract account\r\n\t// not to an owners account\r\n\tfunction ReceiveMoney() public payable{\r\n\t}\r\n\r\n\t// This function will return the current\r\n\t// balance of the contract account owned\r\n\t// by the owner\r\n\tfunction CheckBalance_contractAccount()\r\n\tpublic view onlyOwner returns(uint){\r\n\t\treturn address(this).balance;\r\n\t}\r\n\t\r\n\r\n\t// Defining a function that will return\r\n// the current balance of the owner's account\r\nfunction CheckBalance()\r\n\tpublic view onlyOwner returns(uint){\r\n\t\treturn Amount[Owner];\r\n}\r\n\t\r\n}\r\n",
  "sourcePath": "C:\\Users\\a8571\\Smart-Contact\\contracts\\mycontract.sol",
  "compiler": {
    "name": "solc",
    "version": "0.8.13+commit.abaa5c0e.Emscripten.clang"
  },
  "schemaVersion": "3.4.4",
  "updatedAt": "2022-05-21T21:42:45.066Z",
  "devdoc": {
    "kind": "dev",
    "methods": {},
    "version": 1
  },
  "userdoc": {
    "kind": "user",
    "methods": {},
    "version": 1
  }
}