{
  "contractName": "wallet",
  "abi": [
    {
      "inputs": [],
      "stateMutability": "payable",
      "type": "constructor"
    },
    {
      "inputs": [],
      "name": "Owner",
      "outputs": [
        {
          "internalType": "address payable",
          "name": "",
          "type": "address"
        }
      ],
      "stateMutability": "view",
      "type": "function"
    },
    {
      "inputs": [
        {
          "internalType": "address payable",
          "name": "receiver",
          "type": "address"
        },
        {
          "internalType": "uint256",
          "name": "amount",
          "type": "uint256"
        }
      ],
      "name": "sendMoney",
      "outputs": [],
      "stateMutability": "payable",
      "type": "function"
    },
    {
      "inputs": [],
      "name": "ReceiveMoney",
      "outputs": [],
      "stateMutability": "payable",
      "type": "function"
    },
    {
      "inputs": [],
      "name": "CheckBalance_contractAccount",
      "outputs": [
        {
          "internalType": "uint256",
          "name": "",
          "type": "uint256"
        }
      ],
      "stateMutability": "view",
      "type": "function"
    },
    {
      "inputs": [],
      "name": "CheckBalance",
      "outputs": [
        {
          "internalType": "uint256",
          "name": "",
          "type": "uint256"
        }
      ],
      "stateMutability": "view",
      "type": "function"
    }
  ],
  "bytecode": "0x6080604052336000806101000a81548173ffffffffffffffffffffffffffffffffffffffff021916908373ffffffffffffffffffffffffffffffffffffffff16021790555034600160008060009054906101000a900473ffffffffffffffffffffffffffffffffffffffff1673ffffffffffffffffffffffffffffffffffffffff1673ffffffffffffffffffffffffffffffffffffffff168152602001908152602001600020819055506105b2806100b86000396000f3fe60806040526004361061004a5760003560e01c806344e73b781461004f57806383cca1521461007a578063a29e0a94146100a5578063b4a99a4e146100af578063ee4ae2c9146100da575b600080fd5b34801561005b57600080fd5b506100646100f6565b60405161007191906103af565b60405180910390f35b34801561008657600080fd5b5061008f6101b6565b60405161009c91906103af565b60405180910390f35b6100ad610216565b005b3480156100bb57600080fd5b506100c4610218565b6040516100d1919061040b565b60405180910390f35b6100f460048036038101906100ef9190610483565b61023c565b005b60003373ffffffffffffffffffffffffffffffffffffffff1660008054906101000a900473ffffffffffffffffffffffffffffffffffffffff1673ffffffffffffffffffffffffffffffffffffffff161461015057600080fd5b600160008060009054906101000a900473ffffffffffffffffffffffffffffffffffffffff1673ffffffffffffffffffffffffffffffffffffffff1673ffffffffffffffffffffffffffffffffffffffff16815260200190815260200160002054905090565b60003373ffffffffffffffffffffffffffffffffffffffff1660008054906101000a900473ffffffffffffffffffffffffffffffffffffffff1673ffffffffffffffffffffffffffffffffffffffff161461021057600080fd5b47905090565b565b60008054906101000a900473ffffffffffffffffffffffffffffffffffffffff1681565b3373ffffffffffffffffffffffffffffffffffffffff1660008054906101000a900473ffffffffffffffffffffffffffffffffffffffff1673ffffffffffffffffffffffffffffffffffffffff161461029457600080fd5b60008273ffffffffffffffffffffffffffffffffffffffff1631116102b857600080fd5b600081116102c557600080fd5b80600160008060009054906101000a900473ffffffffffffffffffffffffffffffffffffffff1673ffffffffffffffffffffffffffffffffffffffff1673ffffffffffffffffffffffffffffffffffffffff168152602001908152602001600020600082825461033591906104f2565b9250508190555080600160008473ffffffffffffffffffffffffffffffffffffffff1673ffffffffffffffffffffffffffffffffffffffff168152602001908152602001600020600082825461038b9190610526565b925050819055505050565b6000819050919050565b6103a981610396565b82525050565b60006020820190506103c460008301846103a0565b92915050565b600073ffffffffffffffffffffffffffffffffffffffff82169050919050565b60006103f5826103ca565b9050919050565b610405816103ea565b82525050565b600060208201905061042060008301846103fc565b92915050565b600080fd5b610434816103ea565b811461043f57600080fd5b50565b6000813590506104518161042b565b92915050565b61046081610396565b811461046b57600080fd5b50565b60008135905061047d81610457565b92915050565b6000806040838503121561049a57610499610426565b5b60006104a885828601610442565b92505060206104b98582860161046e565b9150509250929050565b7f4e487b7100000000000000000000000000000000000000000000000000000000600052601160045260246000fd5b60006104fd82610396565b915061050883610396565b92508282101561051b5761051a6104c3565b5b828203905092915050565b600061053182610396565b915061053c83610396565b9250827fffffffffffffffffffffffffffffffffffffffffffffffffffffffffffffffff03821115610571576105706104c3565b5b82820190509291505056fea264697066735822122004e7b316e857a480f64f2acb0a33dffcd27379a93c017c2dc157dc0125a078c964736f6c634300080d0033",
  "immutableReferences": {},
  "source": "// pragma is the directive through\n// which we write the smart contract\npragma solidity 0.8.13;\n\t\t\t\t\t\t\t\n// Creating a contract\ncontract wallet{\n\n\t// Specify the owner's address\n\t// which is publicly visible\n\taddress payable public Owner;\n\n\t// mapping is created for mapping\n\t// address=>uint for transaction\n\tmapping(address=>uint) Amount;\n\t\n\t// Defining a constructor\n\t// constructor is payable, which means\n\t// it cost ether during the deployment\n\tconstructor() public payable{\n\t\t\t\t\t\n\t// msg.sender is the address of the\n\t// person who has currently deployed contract\n\t\tOwner = payable(msg.sender);\n\t\t\t\t\t\n\t\t// msg.value is the value of the ether we are\n\t\t// giving during the deploying of contract\n\t\tAmount[Owner] = msg.value;\n\t\n\t}\n\n\t// modifier(onlyOwner) it will check\n\t// the required condition, here condition\n\t// is the only owner can call this function\n\tmodifier onlyOwner(){\n\n\t\t// require is used whether the\n\t\t// owner is the person who has\n\t\t// deployed the contract or not\n\t\trequire(Owner == msg.sender);\n\t\t_;\n\t}\n\n// Defining a function which is\n// used to send money\nfunction sendMoney(\n\taddress payable receiver, uint amount)\n\t\t\t\t\tpublic payable onlyOwner {\n\n\t\t// receiver account balance should be>0\n\t\trequire( receiver.balance>0);\n\t\t\n\t\t// amount should not be negative,\n\t\t// otherwise it will throw error\n\t\trequire(amount>0);\n\t\t\t\t\t\t\n\t\tAmount[Owner] -= amount;\n\t\tAmount[receiver] += amount;\n\t}\n\n\t// Defining function for Receiving money\n\t// to our smart contract account\n\t// not to an owners account\n\tfunction ReceiveMoney() public payable{\n\t}\n\n\t// This function will return the current\n\t// balance of the contract account owned\n\t// by the owner\n\tfunction CheckBalance_contractAccount()\n\tpublic view onlyOwner returns(uint){\n\t\treturn address(this).balance;\n\t}\n\n\t// Defining a function that will return\n// the current balance of the owner's account\nfunction CheckBalance()\n\tpublic view onlyOwner returns(uint){\n\t\treturn Amount[Owner];\n}\n\t\n}\n",
  "sourcePath": "/home/ayushsharma/Desktop/Smart Contract/contracts/mycontract.sol",
  "compiler": {
    "name": "solc",
    "version": "0.8.13+commit.abaa5c0e.Emscripten.clang"
  },
  "schemaVersion": "3.4.7",
  "updatedAt": "2022-05-14T05:37:04.295Z",
  "devdoc": {
    "kind": "dev",
    "methods": {},
    "version": 1
  },
  "userdoc": {
    "kind": "user",
    "methods": {},
    "version": 1
  }
}